{
  "contractName": "MedicalSystem",
  "abi": [
    {
      "inputs": [],
      "payable": false,
      "stateMutability": "nonpayable",
      "type": "constructor"
    },
    {
      "anonymous": false,
      "inputs": [
        {
          "indexed": false,
          "internalType": "address",
          "name": "id",
          "type": "address"
        },
        {
          "indexed": false,
          "internalType": "string",
          "name": "name",
          "type": "string"
        }
      ],
      "name": "DoctorCreated",
      "type": "event"
    },
    {
      "anonymous": false,
      "inputs": [
        {
          "indexed": false,
          "internalType": "address",
          "name": "patientId",
          "type": "address"
        },
        {
          "indexed": false,
          "internalType": "address",
          "name": "doctorId",
          "type": "address"
        }
      ],
      "name": "GivenPermission",
      "type": "event"
    },
    {
      "anonymous": false,
      "inputs": [
        {
          "indexed": false,
          "internalType": "address",
          "name": "id",
          "type": "address"
        },
        {
          "indexed": false,
          "internalType": "string",
          "name": "name",
          "type": "string"
        },
        {
          "indexed": false,
          "internalType": "uint256",
          "name": "age",
          "type": "uint256"
        }
      ],
      "name": "PatientCreated",
      "type": "event"
    },
    {
      "anonymous": false,
      "inputs": [
        {
          "indexed": false,
          "internalType": "address",
          "name": "patientId",
          "type": "address"
        },
        {
          "indexed": false,
          "internalType": "uint256",
          "name": "newRecordId",
          "type": "uint256"
        },
        {
          "indexed": false,
          "internalType": "uint256",
          "name": "uploadDate",
          "type": "uint256"
        }
      ],
      "name": "PatientRecordUploaded",
      "type": "event"
    },
    {
      "constant": true,
      "inputs": [],
      "name": "doctorCount",
      "outputs": [
        {
          "internalType": "uint256",
          "name": "",
          "type": "uint256"
        }
      ],
      "payable": false,
      "stateMutability": "view",
      "type": "function"
    },
    {
      "constant": true,
      "inputs": [
        {
          "internalType": "address",
          "name": "",
          "type": "address"
        }
      ],
      "name": "doctors",
      "outputs": [
        {
          "internalType": "address",
          "name": "id",
          "type": "address"
        },
        {
          "internalType": "string",
          "name": "name",
          "type": "string"
        }
      ],
      "payable": false,
      "stateMutability": "view",
      "type": "function"
    },
    {
      "constant": true,
      "inputs": [],
      "name": "name",
      "outputs": [
        {
          "internalType": "string",
          "name": "",
          "type": "string"
        }
      ],
      "payable": false,
      "stateMutability": "view",
      "type": "function"
    },
    {
      "constant": true,
      "inputs": [],
      "name": "patientCount",
      "outputs": [
        {
          "internalType": "uint256",
          "name": "",
          "type": "uint256"
        }
      ],
      "payable": false,
      "stateMutability": "view",
      "type": "function"
    },
    {
      "constant": true,
      "inputs": [
        {
          "internalType": "address",
          "name": "",
          "type": "address"
        }
      ],
      "name": "patients",
      "outputs": [
        {
          "internalType": "address",
          "name": "id",
          "type": "address"
        },
        {
          "internalType": "string",
          "name": "name",
          "type": "string"
        },
        {
          "internalType": "uint256",
          "name": "age",
          "type": "uint256"
        },
        {
          "internalType": "uint256",
          "name": "totalRecords",
          "type": "uint256"
        }
      ],
      "payable": false,
      "stateMutability": "view",
      "type": "function"
    },
    {
      "constant": true,
      "inputs": [],
      "name": "login",
      "outputs": [
        {
          "internalType": "string",
          "name": "userType",
          "type": "string"
        }
      ],
      "payable": false,
      "stateMutability": "view",
      "type": "function"
    },
    {
      "constant": false,
      "inputs": [
        {
          "internalType": "string",
          "name": "_name",
          "type": "string"
        },
        {
          "internalType": "uint256",
          "name": "_age",
          "type": "uint256"
        }
      ],
      "name": "createPatient",
      "outputs": [],
      "payable": false,
      "stateMutability": "nonpayable",
      "type": "function"
    },
    {
      "constant": false,
      "inputs": [
        {
          "internalType": "string",
          "name": "_ipfsHash",
          "type": "string"
        }
      ],
      "name": "uploadPatientRecord",
      "outputs": [],
      "payable": false,
      "stateMutability": "nonpayable",
      "type": "function"
    },
    {
      "constant": true,
      "inputs": [
        {
          "internalType": "address",
          "name": "_patientId",
          "type": "address"
        },
        {
          "internalType": "uint256",
          "name": "_recordId",
          "type": "uint256"
        }
      ],
      "name": "getPatientRecord",
      "outputs": [
        {
          "internalType": "string",
          "name": "ipfsHash",
          "type": "string"
        },
        {
          "internalType": "uint256",
          "name": "uploadDate",
          "type": "uint256"
        }
      ],
      "payable": false,
      "stateMutability": "view",
      "type": "function"
    },
    {
      "constant": false,
      "inputs": [
        {
          "internalType": "string",
          "name": "_name",
          "type": "string"
        }
      ],
      "name": "createDoctor",
      "outputs": [],
      "payable": false,
      "stateMutability": "nonpayable",
      "type": "function"
    },
    {
      "constant": false,
      "inputs": [
        {
          "internalType": "address",
          "name": "_doctorId",
          "type": "address"
        }
      ],
      "name": "givePermission",
      "outputs": [],
      "payable": false,
      "stateMutability": "nonpayable",
      "type": "function"
    }
  ],
  "bytecode": "0x6080604052600060015560006002553480156200001b57600080fd5b506040518060400160405280600b81526020017f4861636b2d612d74686f6e000000000000000000000000000000000000000000815250600090805190602001906200006992919062000070565b506200011f565b828054600181600116156101000203166002900490600052602060002090601f016020900481019282601f10620000b357805160ff1916838001178555620000e4565b82800160010185558215620000e4579182015b82811115620000e3578251825591602001919060010190620000c6565b5b509050620000f39190620000f7565b5090565b6200011c91905b8082111562000118576000816000905550600101620000fe565b5090565b90565b6120bd806200012f6000396000f3fe608060405234801561001057600080fd5b50600436106100a95760003560e01c80636d93fa19116100715780636d93fa19146103f357806378522bc4146104c15780638352a586146104df578063a0303c411461059a578063a9583c22146105b8578063b34e97e8146106a8576100a9565b806306fdde03146100ae5780630869cfbc146101315780633d391f701461022f578063580d80381461027357806365ba3f8c14610338575b600080fd5b6100b661072b565b6040518080602001828103825283818151815260200191508051906020019080838360005b838110156100f65780820151818401526020810190506100db565b50505050905090810190601f1680156101235780820380516001836020036101000a031916815260200191505b509250505060405180910390f35b6101736004803603602081101561014757600080fd5b81019080803573ffffffffffffffffffffffffffffffffffffffff1690602001909291905050506107c9565b604051808573ffffffffffffffffffffffffffffffffffffffff1673ffffffffffffffffffffffffffffffffffffffff16815260200180602001848152602001838152602001828103825285818151815260200191508051906020019080838360005b838110156101f15780820151818401526020810190506101d6565b50505050905090810190601f16801561021e5780820380516001836020036101000a031916815260200191505b509550505050505060405180910390f35b6102716004803603602081101561024557600080fd5b81019080803573ffffffffffffffffffffffffffffffffffffffff1690602001909291905050506108b1565b005b6103366004803603604081101561028957600080fd5b81019080803590602001906401000000008111156102a657600080fd5b8201836020820111156102b857600080fd5b803590602001918460018302840111640100000000831117156102da57600080fd5b91908080601f016020809104026020016040519081016040528093929190818152602001838380828437600081840152601f19601f82011690508083019250505050505050919291929080359060200190929190505050610cbc565b005b6103f16004803603602081101561034e57600080fd5b810190808035906020019064010000000081111561036b57600080fd5b82018360208201111561037d57600080fd5b8035906020019184600183028401116401000000008311171561039f57600080fd5b91908080601f016020809104026020016040519081016040528093929190818152602001838380828437600081840152601f19601f820116905080830192505050505050509192919290505050611130565b005b61043f6004803603604081101561040957600080fd5b81019080803573ffffffffffffffffffffffffffffffffffffffff16906020019092919080359060200190929190505050611383565b6040518080602001838152602001828103825284818151815260200191508051906020019080838360005b8381101561048557808201518184015260208101905061046a565b50505050905090810190601f1680156104b25780820380516001836020036101000a031916815260200191505b50935050505060405180910390f35b6104c961185c565b6040518082815260200191505060405180910390f35b610598600480360360208110156104f557600080fd5b810190808035906020019064010000000081111561051257600080fd5b82018360208201111561052457600080fd5b8035906020019184600183028401116401000000008311171561054657600080fd5b91908080601f016020809104026020016040519081016040528093929190818152602001838380828437600081840152601f19601f820116905080830192505050505050509192919290505050611862565b005b6105a2611ca8565b6040518082815260200191505060405180910390f35b6105fa600480360360208110156105ce57600080fd5b81019080803573ffffffffffffffffffffffffffffffffffffffff169060200190929190505050611cae565b604051808373ffffffffffffffffffffffffffffffffffffffff1673ffffffffffffffffffffffffffffffffffffffff16815260200180602001828103825283818151815260200191508051906020019080838360005b8381101561066c578082015181840152602081019050610651565b50505050905090810190601f1680156106995780820380516001836020036101000a031916815260200191505b50935050505060405180910390f35b6106b0611d8a565b6040518080602001828103825283818151815260200191508051906020019080838360005b838110156106f05780820151818401526020810190506106d5565b50505050905090810190601f16801561071d5780820380516001836020036101000a031916815260200191505b509250505060405180910390f35b60008054600181600116156101000203166002900480601f0160208091040260200160405190810160405280929190818152602001828054600181600116156101000203166002900480156107c15780601f10610796576101008083540402835291602001916107c1565b820191906000526020600020905b8154815290600101906020018083116107a457829003601f168201915b505050505081565b60036020528060005260406000206000915090508060000160009054906101000a900473ffffffffffffffffffffffffffffffffffffffff1690806001018054600181600116156101000203166002900480601f01602080910402602001604051908101604052809291908181526020018280546001816001161561010002031660029004801561089b5780601f106108705761010080835404028352916020019161089b565b820191906000526020600020905b81548152906001019060200180831161087e57829003601f168201915b5050505050908060020154908060030154905084565b600073ffffffffffffffffffffffffffffffffffffffff16600360003373ffffffffffffffffffffffffffffffffffffffff1673ffffffffffffffffffffffffffffffffffffffff16815260200190815260200160002060000160009054906101000a900473ffffffffffffffffffffffffffffffffffffffff1673ffffffffffffffffffffffffffffffffffffffff161415610999576040517f08c379a00000000000000000000000000000000000000000000000000000000081526004018080602001828103825260228152602001806120146022913960400191505060405180910390fd5b600073ffffffffffffffffffffffffffffffffffffffff16600460008373ffffffffffffffffffffffffffffffffffffffff1673ffffffffffffffffffffffffffffffffffffffff16815260200190815260200160002060000160009054906101000a900473ffffffffffffffffffffffffffffffffffffffff1673ffffffffffffffffffffffffffffffffffffffff161415610a9e576040517f08c379a000000000000000000000000000000000000000000000000000000000815260040180806020018281038252601a8152602001807f496e76616c696420446f63746f722049442070726f766964656400000000000081525060200191505060405180910390fd5b6000600360003373ffffffffffffffffffffffffffffffffffffffff1673ffffffffffffffffffffffffffffffffffffffff168152602001908152602001600020905060018160050160008473ffffffffffffffffffffffffffffffffffffffff1673ffffffffffffffffffffffffffffffffffffffff16815260200190815260200160002060006101000a81548160ff0219169083151502179055506000600460008473ffffffffffffffffffffffffffffffffffffffff1673ffffffffffffffffffffffffffffffffffffffff168152602001908152602001600020905060018160020160003373ffffffffffffffffffffffffffffffffffffffff1673ffffffffffffffffffffffffffffffffffffffff16815260200190815260200160002060006101000a81548160ff0219169083151502179055507f93b2764630793d9e391268c5205e3960890b0370b1e90349fb17a870bcfd13528260000160009054906101000a900473ffffffffffffffffffffffffffffffffffffffff168260000160009054906101000a900473ffffffffffffffffffffffffffffffffffffffff16604051808373ffffffffffffffffffffffffffffffffffffffff1673ffffffffffffffffffffffffffffffffffffffff1681526020018273ffffffffffffffffffffffffffffffffffffffff1673ffffffffffffffffffffffffffffffffffffffff1681526020019250505060405180910390a1505050565b600073ffffffffffffffffffffffffffffffffffffffff16600360003373ffffffffffffffffffffffffffffffffffffffff1673ffffffffffffffffffffffffffffffffffffffff16815260200190815260200160002060000160009054906101000a900473ffffffffffffffffffffffffffffffffffffffff1673ffffffffffffffffffffffffffffffffffffffff1614610dc0576040517f08c379a000000000000000000000000000000000000000000000000000000000815260040180806020018281038252601f8152602001807f416c7265616479207265676973746572656420617320612050617469656e740081525060200191505060405180910390fd5b600073ffffffffffffffffffffffffffffffffffffffff16600460003373ffffffffffffffffffffffffffffffffffffffff1673ffffffffffffffffffffffffffffffffffffffff16815260200190815260200160002060000160009054906101000a900473ffffffffffffffffffffffffffffffffffffffff1673ffffffffffffffffffffffffffffffffffffffff1614610ec4576040517f08c379a000000000000000000000000000000000000000000000000000000000815260040180806020018281038252601e8152602001807f416c72656164792072656769737465726564206173206120446f63746f72000081525060200191505060405180910390fd5b60016000815480929190600101919050555060405180608001604052803373ffffffffffffffffffffffffffffffffffffffff1681526020018381526020018281526020016000815250600360003373ffffffffffffffffffffffffffffffffffffffff1673ffffffffffffffffffffffffffffffffffffffff16815260200190815260200160002060008201518160000160006101000a81548173ffffffffffffffffffffffffffffffffffffffff021916908373ffffffffffffffffffffffffffffffffffffffff1602179055506020820151816001019080519060200190610fb0929190611f6e565b5060408201518160020155606082015181600301559050506000600360003373ffffffffffffffffffffffffffffffffffffffff1673ffffffffffffffffffffffffffffffffffffffff16815260200190815260200160002090507fbdf48c05c56bb82376393c4bf9172c40f135dbf5268241b3b552af9e75a1f7d78160000160009054906101000a900473ffffffffffffffffffffffffffffffffffffffff16826001018360020154604051808473ffffffffffffffffffffffffffffffffffffffff1673ffffffffffffffffffffffffffffffffffffffff1681526020018060200183815260200182810382528481815460018160011615610100020316600290048152602001915080546001816001161561010002031660029004801561111b5780601f106110f05761010080835404028352916020019161111b565b820191906000526020600020905b8154815290600101906020018083116110fe57829003601f168201915b505094505050505060405180910390a1505050565b600073ffffffffffffffffffffffffffffffffffffffff16600360003373ffffffffffffffffffffffffffffffffffffffff1673ffffffffffffffffffffffffffffffffffffffff16815260200190815260200160002060000160009054906101000a900473ffffffffffffffffffffffffffffffffffffffff1673ffffffffffffffffffffffffffffffffffffffff161415611235576040517f08c379a000000000000000000000000000000000000000000000000000000000815260040180806020018281038252600d8152602001807f4e6f7420612050617469656e740000000000000000000000000000000000000081525060200191505060405180910390fd5b6000600360003373ffffffffffffffffffffffffffffffffffffffff1673ffffffffffffffffffffffffffffffffffffffff168152602001908152602001600020905080600301600081548092919060010191905055506040518060400160405280838152602001428152508160040160008360030154815260200190815260200160002060008201518160000190805190602001906112d6929190611f6e565b50602082015181600101559050507f9fa5f643bfa6b38b755b80fbf7050b47a41daa8e9027684e538c56bb7b75be268160000160009054906101000a900473ffffffffffffffffffffffffffffffffffffffff16826003015442604051808473ffffffffffffffffffffffffffffffffffffffff1673ffffffffffffffffffffffffffffffffffffffff168152602001838152602001828152602001935050505060405180910390a15050565b606060008073ffffffffffffffffffffffffffffffffffffffff16600360008673ffffffffffffffffffffffffffffffffffffffff1673ffffffffffffffffffffffffffffffffffffffff16815260200190815260200160002060000160009054906101000a900473ffffffffffffffffffffffffffffffffffffffff1673ffffffffffffffffffffffffffffffffffffffff16141561148b576040517f08c379a000000000000000000000000000000000000000000000000000000000815260040180806020018281038252601b8152602001807f496e76616c69642050617469656e742049442070726f7669646564000000000081525060200191505060405180910390fd5b3373ffffffffffffffffffffffffffffffffffffffff168473ffffffffffffffffffffffffffffffffffffffff161461169057600073ffffffffffffffffffffffffffffffffffffffff16600460003373ffffffffffffffffffffffffffffffffffffffff1673ffffffffffffffffffffffffffffffffffffffff16815260200190815260200160002060000160009054906101000a900473ffffffffffffffffffffffffffffffffffffffff1673ffffffffffffffffffffffffffffffffffffffff1614156115a6576040517f08c379a00000000000000000000000000000000000000000000000000000000081526004018080602001828103825260218152602001806120366021913960400191505060405180910390fd5b60011515600360008673ffffffffffffffffffffffffffffffffffffffff1673ffffffffffffffffffffffffffffffffffffffff16815260200190815260200160002060050160003373ffffffffffffffffffffffffffffffffffffffff1673ffffffffffffffffffffffffffffffffffffffff16815260200190815260200160002060009054906101000a900460ff1615151461168f576040517f08c379a00000000000000000000000000000000000000000000000000000000081526004018080602001828103825260328152602001806120576032913960400191505060405180910390fd5b5b8260001080156116e25750600360008573ffffffffffffffffffffffffffffffffffffffff1673ffffffffffffffffffffffffffffffffffffffff168152602001908152602001600020600301548311155b611754576040517f08c379a000000000000000000000000000000000000000000000000000000000815260040180806020018281038252601a8152602001807f496e76616c6964205265636f72642049442070726f766964656400000000000081525060200191505060405180910390fd5b6000600360008673ffffffffffffffffffffffffffffffffffffffff1673ffffffffffffffffffffffffffffffffffffffff16815260200190815260200160002060040160008581526020019081526020016000209050806000018160010154818054600181600116156101000203166002900480601f0160208091040260200160405190810160405280929190818152602001828054600181600116156101000203166002900480156118495780601f1061181e57610100808354040283529160200191611849565b820191906000526020600020905b81548152906001019060200180831161182c57829003601f168201915b5050505050915092509250509250929050565b60025481565b600073ffffffffffffffffffffffffffffffffffffffff16600360003373ffffffffffffffffffffffffffffffffffffffff1673ffffffffffffffffffffffffffffffffffffffff16815260200190815260200160002060000160009054906101000a900473ffffffffffffffffffffffffffffffffffffffff1673ffffffffffffffffffffffffffffffffffffffff1614611966576040517f08c379a000000000000000000000000000000000000000000000000000000000815260040180806020018281038252601f8152602001807f416c7265616479207265676973746572656420617320612050617469656e740081525060200191505060405180910390fd5b600073ffffffffffffffffffffffffffffffffffffffff16600460003373ffffffffffffffffffffffffffffffffffffffff1673ffffffffffffffffffffffffffffffffffffffff16815260200190815260200160002060000160009054906101000a900473ffffffffffffffffffffffffffffffffffffffff1673ffffffffffffffffffffffffffffffffffffffff1614611a6a576040517f08c379a000000000000000000000000000000000000000000000000000000000815260040180806020018281038252601e8152602001807f416c72656164792072656769737465726564206173206120446f63746f72000081525060200191505060405180910390fd5b60026000815480929190600101919050555060405180604001604052803373ffffffffffffffffffffffffffffffffffffffff16815260200182815250600460003373ffffffffffffffffffffffffffffffffffffffff1673ffffffffffffffffffffffffffffffffffffffff16815260200190815260200160002060008201518160000160006101000a81548173ffffffffffffffffffffffffffffffffffffffff021916908373ffffffffffffffffffffffffffffffffffffffff1602179055506020820151816001019080519060200190611b49929190611f6e565b509050506000600460003373ffffffffffffffffffffffffffffffffffffffff1673ffffffffffffffffffffffffffffffffffffffff16815260200190815260200160002090507f134d2592bdd9e6233574dcd66b007a35e206e6308701683f852712c92d4ad3348160000160009054906101000a900473ffffffffffffffffffffffffffffffffffffffff1682600101604051808373ffffffffffffffffffffffffffffffffffffffff1673ffffffffffffffffffffffffffffffffffffffff16815260200180602001828103825283818154600181600116156101000203166002900481526020019150805460018160011615610100020316600290048015611c955780601f10611c6a57610100808354040283529160200191611c95565b820191906000526020600020905b815481529060010190602001808311611c7857829003601f168201915b5050935050505060405180910390a15050565b60015481565b60046020528060005260406000206000915090508060000160009054906101000a900473ffffffffffffffffffffffffffffffffffffffff1690806001018054600181600116156101000203166002900480601f016020809104026020016040519081016040528092919081815260200182805460018160011615610100020316600290048015611d805780601f10611d5557610100808354040283529160200191611d80565b820191906000526020600020905b815481529060010190602001808311611d6357829003601f168201915b5050505050905082565b6060600073ffffffffffffffffffffffffffffffffffffffff16600360003373ffffffffffffffffffffffffffffffffffffffff1673ffffffffffffffffffffffffffffffffffffffff16815260200190815260200160002060000160009054906101000a900473ffffffffffffffffffffffffffffffffffffffff1673ffffffffffffffffffffffffffffffffffffffff1614611e5f576040518060400160405280600781526020017f50617469656e74000000000000000000000000000000000000000000000000008152509050611f6b565b600073ffffffffffffffffffffffffffffffffffffffff16600460003373ffffffffffffffffffffffffffffffffffffffff1673ffffffffffffffffffffffffffffffffffffffff16815260200190815260200160002060000160009054906101000a900473ffffffffffffffffffffffffffffffffffffffff1673ffffffffffffffffffffffffffffffffffffffff1614611f32576040518060400160405280600681526020017f446f63746f7200000000000000000000000000000000000000000000000000008152509050611f6b565b6040518060400160405280600581526020017f477565737400000000000000000000000000000000000000000000000000000081525090505b90565b828054600181600116156101000203166002900490600052602060002090601f016020900481019282601f10611faf57805160ff1916838001178555611fdd565b82800160010185558215611fdd579182015b82811115611fdc578251825591602001919060010190611fc1565b5b509050611fea9190611fee565b5090565b61201091905b8082111561200c576000816000905550600101611ff4565b5090565b9056fe53656e646572206973206e6f74206120526567697374657265642050617469656e7453656e646572206973206e6f742061205265676973746572656420446f63746f7250617469656e7420686173206e6f742070726f7669646564207065726d697373696f6e20666f722074686520446f63746f72a265627a7a72315820fa393b5eb3dc6fcb69470308eb19df9ee9ec60759ad19acae89e682f3579536b64736f6c63430005100032",
  "source": "pragma solidity ^0.5.0;\r\n\r\ncontract MedicalSystem {\r\n    string public name;\r\n\r\n    uint public patientCount  = 0;\r\n    uint public doctorCount = 0;\r\n    mapping(address => Patient) public patients;\r\n    mapping(address => Doctor) public doctors;\r\n\r\n    constructor() public {\r\n        name = \"Hack-a-thon\";\r\n    }\r\n\r\n    struct Record {\r\n        string ipfsHash;\r\n        uint uploadDate;\r\n    }\r\n\r\n    struct Patient {\r\n        address id;\r\n        string name;\r\n        uint age;\r\n\r\n        uint totalRecords;\r\n        mapping(uint => Record) records;\r\n        \r\n        mapping(address => bool) permissionsToDoctors;\r\n    }\r\n\r\n    event PatientCreated(\r\n        address id,\r\n        string name,\r\n        uint age\r\n    );\r\n\r\n\r\n    event PatientRecordUploaded(\r\n        address patientId,\r\n        uint newRecordId,\r\n        uint uploadDate\r\n    );\r\n    // string recordIpfsHash\r\n\r\n    event GivenPermission(\r\n        address patientId,\r\n        address doctorId\r\n    );\r\n\r\n    struct Doctor {\r\n        address id;\r\n        string name;\r\n\r\n        mapping(address => bool) patientsPermission;\r\n    }\r\n\r\n    event DoctorCreated(\r\n        address id,\r\n        string name\r\n    );\r\n\r\n    function login() public view returns (string memory userType) {\r\n        if(patients[msg.sender].id!=address(0)) return \"Patient\";\r\n        if(doctors[msg.sender].id!=address(0)) return \"Doctor\";\r\n        \r\n        return (\"Guest\");\r\n    }\r\n\r\n\r\n    function createPatient(string memory _name, uint  _age) public {\r\n        if(patients[msg.sender].id != address(0))\r\n            revert(\"Already registered as a Patient\");\r\n        else if(doctors[msg.sender].id != address(0))\r\n            revert(\"Already registered as a Doctor\");\r\n\r\n        patientCount++;\r\n        patients[msg.sender] = Patient({\r\n            id: msg.sender,\r\n            name: _name,\r\n            age: _age,\r\n            totalRecords: 0\r\n        });\r\n\r\n        Patient storage _patient = patients[msg.sender];\r\n        emit PatientCreated({\r\n            id: _patient.id,\r\n            name: _patient.name,\r\n            age: _patient.age\r\n        });\r\n    }\r\n\r\n    function uploadPatientRecord(string memory _ipfsHash) public {\r\n        require(patients[msg.sender].id != address(0), \"Not a Patient\");\r\n        \r\n        Patient storage _patient = patients[msg.sender];\r\n        _patient.totalRecords++;\r\n        _patient.records[_patient.totalRecords] = Record({\r\n            ipfsHash: _ipfsHash,\r\n            uploadDate: now\r\n        });\r\n\r\n        emit PatientRecordUploaded({\r\n            patientId: _patient.id,\r\n            newRecordId: _patient.totalRecords,\r\n            uploadDate: now\r\n        });\r\n        // recordIpfsHash: _patient.records[_patient.totalRecords].ipfsHash\r\n    }\r\n\r\n    function getPatientRecord(address _patientId, uint _recordId) \r\n    public view \r\n    returns (string memory ipfsHash, uint uploadDate)\r\n    {\r\n        require(patients[_patientId].id != address(0), \"Invalid Patient ID provided\");\r\n\r\n        if(_patientId != msg.sender) {\r\n            require(\r\n                doctors[msg.sender].id != address(0), \r\n                \"Sender is not a Registered Doctor\"\r\n            );\r\n            require(\r\n                patients[_patientId].permissionsToDoctors[msg.sender] == true, \r\n                \"Patient has not provided permission for the Doctor\"\r\n            );\r\n        }\r\n\r\n        require(\r\n            0 < _recordId && _recordId <= patients[_patientId].totalRecords,\r\n            \"Invalid Record ID provided\"\r\n        );\r\n\r\n        Record storage _record = patients[_patientId].records[_recordId];\r\n        return (_record.ipfsHash, _record.uploadDate);\r\n    }\r\n    \r\n    function createDoctor(string memory _name) public {\r\n        if(patients[msg.sender].id != address(0))\r\n            revert(\"Already registered as a Patient\");\r\n        else if(doctors[msg.sender].id != address(0))\r\n            revert(\"Already registered as a Doctor\");\r\n\r\n        doctorCount++;\r\n        doctors[msg.sender] = Doctor({\r\n            id: msg.sender,\r\n            name: _name\r\n        });\r\n\r\n        Doctor storage _doctor = doctors[msg.sender];\r\n        emit DoctorCreated({\r\n            id: _doctor.id,\r\n            name: _doctor.name\r\n        });\r\n    }\r\n\r\n    function givePermission(address _doctorId) public {\r\n        require(patients[msg.sender].id != address(0), \"Sender is not a Registered Patient\");\r\n        require(doctors[_doctorId].id != address(0), \"Invalid Doctor ID provided\");\r\n\r\n        //Patient Permission\r\n        Patient storage _patient = patients[msg.sender];\r\n        _patient.permissionsToDoctors[_doctorId] = true;\r\n\r\n        // Doctor Permission\r\n        Doctor storage _doctor  = doctors[_doctorId];\r\n        _doctor.patientsPermission[msg.sender] = true;\r\n\r\n        emit GivenPermission({\r\n            patientId: _patient.id,\r\n            doctorId: _doctor.id\r\n        });\r\n    }\r\n}\r\n\r\n",
  "sourcePath": "D:/Desktop/My-Projects/Full Stack Apps/CyberSecuirty-Project/src/contracts/MedicalSystem.sol",
  "compiler": {
    "name": "solc",
    "version": "0.5.16+commit.9c3226ce.Emscripten.clang"
  },
  "schemaVersion": "3.3.4",
  "updatedAt": "2022-04-08T03:16:16.333Z",
  "devdoc": {
    "methods": {}
  },
  "userdoc": {
    "methods": {}
  }
}